{
  "_format": "hh-sol-artifact-1",
  "contractName": "GenericSwapFacet",
  "sourceName": "src/Facets/GenericSwapFacet.sol",
  "abi": [
    {
      "inputs": [],
      "name": "ContractCallNotAllowed",
      "type": "error"
    },
    {
      "inputs": [
        {
          "internalType": "uint256",
          "name": "minAmount",
          "type": "uint256"
        },
        {
          "internalType": "uint256",
          "name": "receivedAmount",
          "type": "uint256"
        }
      ],
      "name": "CumulativeSlippageTooHigh",
      "type": "error"
    },
    {
      "inputs": [
        {
          "internalType": "uint256",
          "name": "required",
          "type": "uint256"
        },
        {
          "internalType": "uint256",
          "name": "balance",
          "type": "uint256"
        }
      ],
      "name": "InsufficientBalance",
      "type": "error"
    },
    {
      "inputs": [],
      "name": "InvalidAmount",
      "type": "error"
    },
    {
      "inputs": [],
      "name": "InvalidContract",
      "type": "error"
    },
    {
      "inputs": [],
      "name": "InvalidReceiver",
      "type": "error"
    },
    {
      "inputs": [],
      "name": "NativeAssetTransferFailed",
      "type": "error"
    },
    {
      "inputs": [],
      "name": "NoSwapDataProvided",
      "type": "error"
    },
    {
      "inputs": [],
      "name": "NoSwapFromZeroBalance",
      "type": "error"
    },
    {
      "inputs": [],
      "name": "NoTransferToNullAddress",
      "type": "error"
    },
    {
      "inputs": [],
      "name": "NullAddrIsNotAValidSpender",
      "type": "error"
    },
    {
      "inputs": [],
      "name": "NullAddrIsNotAnERC20Token",
      "type": "error"
    },
    {
      "inputs": [],
      "name": "ReentrancyError",
      "type": "error"
    },
    {
      "inputs": [],
      "name": "SliceOutOfBounds",
      "type": "error"
    },
    {
      "inputs": [],
      "name": "SliceOverflow",
      "type": "error"
    },
    {
      "anonymous": false,
      "inputs": [
        {
          "indexed": true,
          "internalType": "bytes32",
          "name": "transactionId",
          "type": "bytes32"
        },
        {
          "indexed": false,
          "internalType": "string",
          "name": "integrator",
          "type": "string"
        },
        {
          "indexed": false,
          "internalType": "string",
          "name": "referrer",
          "type": "string"
        },
        {
          "indexed": false,
          "internalType": "address",
          "name": "fromAssetId",
          "type": "address"
        },
        {
          "indexed": false,
          "internalType": "address",
          "name": "toAssetId",
          "type": "address"
        },
        {
          "indexed": false,
          "internalType": "uint256",
          "name": "fromAmount",
          "type": "uint256"
        },
        {
          "indexed": false,
          "internalType": "uint256",
          "name": "toAmount",
          "type": "uint256"
        }
      ],
      "name": "KanaSwappedGeneric",
      "type": "event"
    },
    {
      "anonymous": false,
      "inputs": [
        {
          "indexed": true,
          "internalType": "bytes32",
          "name": "transactionId",
          "type": "bytes32"
        },
        {
          "indexed": false,
          "internalType": "address",
          "name": "receivingAssetId",
          "type": "address"
        },
        {
          "indexed": false,
          "internalType": "address",
          "name": "receiver",
          "type": "address"
        },
        {
          "indexed": false,
          "internalType": "uint256",
          "name": "amount",
          "type": "uint256"
        },
        {
          "indexed": false,
          "internalType": "uint256",
          "name": "timestamp",
          "type": "uint256"
        }
      ],
      "name": "KanaTransferCompleted",
      "type": "event"
    },
    {
      "anonymous": false,
      "inputs": [
        {
          "components": [
            {
              "internalType": "bytes32",
              "name": "transactionId",
              "type": "bytes32"
            },
            {
              "internalType": "string",
              "name": "bridge",
              "type": "string"
            },
            {
              "internalType": "string",
              "name": "integrator",
              "type": "string"
            },
            {
              "internalType": "address",
              "name": "referrer",
              "type": "address"
            },
            {
              "internalType": "address",
              "name": "sendingAssetId",
              "type": "address"
            },
            {
              "internalType": "address",
              "name": "receiver",
              "type": "address"
            },
            {
              "internalType": "uint256",
              "name": "minAmount",
              "type": "uint256"
            },
            {
              "internalType": "uint256",
              "name": "destinationChainId",
              "type": "uint256"
            },
            {
              "internalType": "bool",
              "name": "hasSourceSwaps",
              "type": "bool"
            },
            {
              "internalType": "bool",
              "name": "hasDestinationCall",
              "type": "bool"
            }
          ],
          "indexed": false,
          "internalType": "struct IKana.BridgeData",
          "name": "bridgeData",
          "type": "tuple"
        }
      ],
      "name": "KanaTransferStarted",
      "type": "event"
    },
    {
      "inputs": [
        {
          "internalType": "bytes32",
          "name": "_transactionId",
          "type": "bytes32"
        },
        {
          "internalType": "string",
          "name": "_integrator",
          "type": "string"
        },
        {
          "internalType": "string",
          "name": "_referrer",
          "type": "string"
        },
        {
          "internalType": "address payable",
          "name": "_receiver",
          "type": "address"
        },
        {
          "internalType": "uint256",
          "name": "_minAmount",
          "type": "uint256"
        },
        {
          "components": [
            {
              "internalType": "address",
              "name": "callTo",
              "type": "address"
            },
            {
              "internalType": "address",
              "name": "approveTo",
              "type": "address"
            },
            {
              "internalType": "address",
              "name": "sendingAssetId",
              "type": "address"
            },
            {
              "internalType": "address",
              "name": "receivingAssetId",
              "type": "address"
            },
            {
              "internalType": "uint256",
              "name": "fromAmount",
              "type": "uint256"
            },
            {
              "internalType": "bytes",
              "name": "callData",
              "type": "bytes"
            },
            {
              "internalType": "bool",
              "name": "requiresDeposit",
              "type": "bool"
            }
          ],
          "internalType": "struct LibSwap.SwapData[]",
          "name": "_swapData",
          "type": "tuple[]"
        }
      ],
      "name": "swapTokensGeneric",
      "outputs": [],
      "stateMutability": "payable",
      "type": "function"
    }
  ],
  "bytecode": "0x608060405234801561001057600080fd5b50612c6b806100206000396000f3fe60806040526004361061001e5760003560e01c80634630a0d814610023575b600080fd5b61003d60048036038101906100389190611fae565b61003f565b005b836000344761004e91906120cc565b9050600061005a61037c565b9050600181600001540361009a576040517f29f745a700000000000000000000000000000000000000000000000000000000815260040160405180910390fd5b600181600001819055506100e26040518060400160405280600781526020017f776f726b696e67000000000000000000000000000000000000000000000000008152506103a9565b6100eb87610442565b15610122576040517f1e4ec46b00000000000000000000000000000000000000000000000000000000815260040160405180910390fd5b6101606040518060400160405280600881526020017f776f726b696e67310000000000000000000000000000000000000000000000008152506103a9565b600061016f8d8888888c61047a565b90506101af6040518060400160405280600881526020017f776f726b696e67320000000000000000000000000000000000000000000000008152506103a9565b600086866001898990506101c391906120cc565b8181106101d3576101d2612100565b5b90506020028101906101e5919061213e565b60600160208101906101f791906121a4565b90506102376040518060400160405280600881526020017f776f726b696e67330000000000000000000000000000000000000000000000008152506103a9565b610242818a846105c3565b6102806040518060400160405280600881526020017f776f726b696e67330000000000000000000000000000000000000000000000008152506103a9565b8d7ff759b8879b7c58816b62c8cb8572a777bed770ca90e4a5b3bb4c7a8f7e94cf138e8e8e8e8c8c60008181106102ba576102b9612100565b5b90506020028101906102cc919061213e565b60400160208101906102de91906121a4565b878e8e60008181106102f3576102f2612100565b5b9050602002810190610305919061213e565b608001358a60405161031e98979695949392919061224d565b60405180910390a25050600081600001819055505060004790506000828211610348576000610355565b828261035491906120cc565b5b9050600081111561036d5761036c600085836105c3565b5b50505050505050505050505050565b6000807fa65bb2f450488ab0858c00edc14abc5297769bf42adb48cfb77752890e8b697b90508091505090565b61043f816040516024016103bd919061232e565b6040516020818303038152906040527f41304fac000000000000000000000000000000000000000000000000000000007bffffffffffffffffffffffffffffffffffffffffffffffffffffffff19166020820180517bffffffffffffffffffffffffffffffffffffffffffffffffffffffff8381831617835250505050610617565b50565b60008073ffffffffffffffffffffffffffffffffffffffff168273ffffffffffffffffffffffffffffffffffffffff16149050919050565b600080848490509050600081036104bd576040517f0503c3ed00000000000000000000000000000000000000000000000000000000815260040160405180910390fd5b600085856001846104ce91906120cc565b8181106104de576104dd612100565b5b90506020028101906104f0919061213e565b606001602081019061050291906121a4565b9050600061050f82610640565b905061051a826106fd565b1561052e57348161052b91906120cc565b90505b600061053a8888610735565b90506105468888610853565b6105538a898989856108c3565b60008261055f85610640565b61056991906120cc565b9050898110156105b25789816040517f275c273c0000000000000000000000000000000000000000000000000000000081526004016105a9929190612350565b60405180910390fd5b809550505050505095945050505050565b600073ffffffffffffffffffffffffffffffffffffffff168373ffffffffffffffffffffffffffffffffffffffff161461060757610602838383610c57565b610612565b6106118282610d6d565b5b505050565b60008151905060006a636f6e736f6c652e6c6f679050602083016000808483855afa5050505050565b60008073ffffffffffffffffffffffffffffffffffffffff168273ffffffffffffffffffffffffffffffffffffffff16146106f4578173ffffffffffffffffffffffffffffffffffffffff166370a08231306040518263ffffffff1660e01b81526004016106ae9190612379565b602060405180830381865afa1580156106cb573d6000803e3d6000fd5b505050506040513d601f19601f820116820180604052508101906106ef91906123a9565b6106f6565b475b9050919050565b60008073ffffffffffffffffffffffffffffffffffffffff168273ffffffffffffffffffffffffffffffffffffffff16149050919050565b6060600083839050905060008167ffffffffffffffff81111561075b5761075a6123d6565b5b6040519080825280602002602001820160405280156107895781602001602082028036833780820191505090505b509050600080600090505b83811015610846578686828181106107af576107ae612100565b5b90506020028101906107c1919061213e565b60600160208101906107d391906121a4565b91506107de82610640565b8382815181106107f1576107f0612100565b5b602002602001018181525050610806826106fd565b1561083b573483828151811061081f5761081e612100565b5b6020026020010181815161083391906120cc565b915081815250505b806001019050610794565b5081935050505092915050565b60005b828290508110156108be57600083838381811061087657610875612100565b5b9050602002810190610888919061213e565b61089190612609565b90508060c00151156108b0576108af81604001518260800151610ec2565b5b818060010192505050610856565b505050565b83838383600084849050905060018114610b2457600085856001846108e891906120cc565b8181106108f8576108f7612100565b5b905060200281019061090a919061213e565b606001602081019061091c91906121a4565b90506000808b8b9050905060005b81811015610a4357368d8d8381811061094657610945612100565b5b9050602002810190610958919061213e565b905061097581604001602081019061097091906121a4565b6106fd565b80610997575061099681602001602081019061099191906121a4565b611020565b5b80156109ba57506109b98160000160208101906109b491906121a4565b611020565b5b80156109f757506109f6818060a001906109d4919061261c565b6000906004926109e693929190612689565b906109f19190612708565b61107f565b5b610a2d576040517f9453980400000000000000000000000000000000000000000000000000000000815260040160405180910390fd5b610a378f826110f0565b8160010191505061092a565b505060005b600184610a5591906120cc565b811015610b1c576000888883818110610a7157610a70612100565b5b9050602002810190610a83919061213e565b6060016020810190610a9591906121a4565b90508373ffffffffffffffffffffffffffffffffffffffff168173ffffffffffffffffffffffffffffffffffffffff1614610b1057858281518110610add57610adc612100565b5b6020026020010151610aee82610640565b610af891906120cc565b92506000831115610b0f57610b0e8188856105c3565b5b5b81600101915050610a48565b505050610c4b565b600089899050905060005b81811015610c4857368b8b83818110610b4b57610b4a612100565b5b9050602002810190610b5d919061213e565b9050610b7a816040016020810190610b7591906121a4565b6106fd565b80610b9c5750610b9b816020016020810190610b9691906121a4565b611020565b5b8015610bbf5750610bbe816000016020810190610bb991906121a4565b611020565b5b8015610bfc5750610bfb818060a00190610bd9919061261c565b600090600492610beb93929190612689565b90610bf69190612708565b61107f565b5b610c32576040517f9453980400000000000000000000000000000000000000000000000000000000815260040160405180910390fd5b610c3c8d826110f0565b81600101915050610b2f565b50505b50505050505050505050565b610c60836106fd565b15610c97576040517fd1bebf0c00000000000000000000000000000000000000000000000000000000815260040160405180910390fd5b60008373ffffffffffffffffffffffffffffffffffffffff166370a08231306040518263ffffffff1660e01b8152600401610cd29190612379565b602060405180830381865afa158015610cef573d6000803e3d6000fd5b505050506040513d601f19601f82011682018060405250810190610d1391906123a9565b905080821115610d5c5781816040517fcf479181000000000000000000000000000000000000000000000000000000008152600401610d53929190612350565b60405180910390fd5b610d6784848461141e565b50505050565b600073ffffffffffffffffffffffffffffffffffffffff168273ffffffffffffffffffffffffffffffffffffffff1603610dd3576040517f21f7434500000000000000000000000000000000000000000000000000000000815260040160405180910390fd5b47811115610e1a5780476040517fcf479181000000000000000000000000000000000000000000000000000000008152600401610e11929190612350565b60405180910390fd5b60008273ffffffffffffffffffffffffffffffffffffffff1682604051610e4090612798565b60006040518083038185875af1925050503d8060008114610e7d576040519150601f19603f3d011682016040523d82523d6000602084013e610e82565b606091505b5050905080610ebd576040517f5a04673700000000000000000000000000000000000000000000000000000000815260040160405180910390fd5b505050565b610ecb826106fd565b15610f0f5780341015610f0a576040517f2c5211c600000000000000000000000000000000000000000000000000000000815260040160405180910390fd5b61101c565b60008103610f49576040517f2c5211c600000000000000000000000000000000000000000000000000000000815260040160405180910390fd5b60008273ffffffffffffffffffffffffffffffffffffffff166370a08231336040518263ffffffff1660e01b8152600401610f849190612379565b602060405180830381865afa158015610fa1573d6000803e3d6000fd5b505050506040513d601f19601f82011682018060405250810190610fc591906123a9565b90508181101561100e5781816040517fcf479181000000000000000000000000000000000000000000000000000000008152600401611005929190612350565b60405180910390fd5b61101a833330856114a4565b505b5050565b600061102a6116c4565b60000160008373ffffffffffffffffffffffffffffffffffffffff1673ffffffffffffffffffffffffffffffffffffffff16815260200190815260200160002060009054906101000a900460ff169050919050565b60006110896116c4565b6001016000837bffffffffffffffffffffffffffffffffffffffffffffffffffffffff19167bffffffffffffffffffffffffffffffffffffffffffffffffffffffff1916815260200190815260200160002060009054906101000a900460ff169050919050565b61110b81600001602081019061110691906121a4565b6116f1565b611141576040517f6eefed2000000000000000000000000000000000000000000000000000000000815260040160405180910390fd5b60008160800135905060008103611184576040517fe46e079c00000000000000000000000000000000000000000000000000000000815260040160405180910390fd5b60006111a183604001602081019061119c91906121a4565b6106fd565b6111ac5760006111b2565b82608001355b905060006111d18460400160208101906111cc91906121a4565b610640565b905060006111f08560600160208101906111eb91906121a4565b610640565b90506000830361122e5761122d85604001602081019061121091906121a4565b86602001602081019061122391906121a4565b8760800135611704565b5b846080013582101561127d578460800135826040517fcf479181000000000000000000000000000000000000000000000000000000008152600401611274929190612350565b60405180910390fd5b60008086600001602081019061129391906121a4565b73ffffffffffffffffffffffffffffffffffffffff1685888060a001906112ba919061261c565b6040516112c89291906127d2565b60006040518083038185875af1925050503d8060008114611305576040519150601f19603f3d011682016040523d82523d6000602084013e61130a565b606091505b50915091508161135e57600061131f82611865565b9050806040517f08c379a0000000000000000000000000000000000000000000000000000000008152600401611355919061232e565b60405180910390fd5b600061137b88606001602081019061137691906121a4565b610640565b90507f7bfdfdb5e3a3776976e53cb0607060f54c5312701c8cba1155cc4d5394440b38898960000160208101906113b291906121a4565b8a60400160208101906113c591906121a4565b8b60600160208101906113d891906121a4565b8c608001358987116113ea57866113f7565b89876113f691906120cc565b5b4260405161140b97969594939291906127fa565b60405180910390a1505050505050505050565b61149f8363a9059cbb60e01b848460405160240161143d929190612869565b604051602081830303815290604052907bffffffffffffffffffffffffffffffffffffffffffffffffffffffff19166020820180517bffffffffffffffffffffffffffffffffffffffffffffffffffffffff83818316178352505050506118f1565b505050565b600073ffffffffffffffffffffffffffffffffffffffff168473ffffffffffffffffffffffffffffffffffffffff160361150a576040517fd1bebf0c00000000000000000000000000000000000000000000000000000000815260040160405180910390fd5b600073ffffffffffffffffffffffffffffffffffffffff168273ffffffffffffffffffffffffffffffffffffffff1603611570576040517f21f7434500000000000000000000000000000000000000000000000000000000815260040160405180910390fd5b600084905060008173ffffffffffffffffffffffffffffffffffffffff166370a08231856040518263ffffffff1660e01b81526004016115b09190612379565b602060405180830381865afa1580156115cd573d6000803e3d6000fd5b505050506040513d601f19601f820116820180604052508101906115f191906123a9565b90506115ff828686866119b8565b82818373ffffffffffffffffffffffffffffffffffffffff166370a08231876040518263ffffffff1660e01b815260040161163a9190612379565b602060405180830381865afa158015611657573d6000803e3d6000fd5b505050506040513d601f19601f8201168201806040525081019061167b91906123a9565b61168591906120cc565b146116bc576040517f2c5211c600000000000000000000000000000000000000000000000000000000815260040160405180910390fd5b505050505050565b6000807fbcebf0a9ab66af8ebd1c7c5806111adc185225ddfcbffe27e46ed5ac66b8904890508091505090565b600080823b905060008111915050919050565b600073ffffffffffffffffffffffffffffffffffffffff168373ffffffffffffffffffffffffffffffffffffffff16031561186057600073ffffffffffffffffffffffffffffffffffffffff168273ffffffffffffffffffffffffffffffffffffffff160361179f576040517f63ba9bff00000000000000000000000000000000000000000000000000000000815260040160405180910390fd5b60008373ffffffffffffffffffffffffffffffffffffffff1663dd62ed3e30856040518363ffffffff1660e01b81526004016117dc929190612892565b602060405180830381865afa1580156117f9573d6000803e3d6000fd5b505050506040513d601f19601f8201168201806040525081019061181d91906123a9565b90508181101561185e5761185d8484837fffffffffffffffffffffffffffffffffffffffffffffffffffffffffffffffff61185891906120cc565b611a41565b5b505b505050565b60606044825110156118ae576040518060400160405280601d81526020017f5472616e73616374696f6e2072657665727465642073696c656e746c7900000081525090506118ec565b60006118d260048085516118c291906120cc565b85611b539092919063ffffffff16565b9050808060200190518101906118e8919061295c565b9150505b919050565b6000611953826040518060400160405280602081526020017f5361666545524332303a206c6f772d6c6576656c2063616c6c206661696c65648152508573ffffffffffffffffffffffffffffffffffffffff16611c5f9092919063ffffffff16565b90506000815111156119b3578080602001905181019061197391906129ba565b6119b2576040517f08c379a00000000000000000000000000000000000000000000000000000000081526004016119a990612a59565b60405180910390fd5b5b505050565b611a3b846323b872dd60e01b8585856040516024016119d993929190612a79565b604051602081830303815290604052907bffffffffffffffffffffffffffffffffffffffffffffffffffffffff19166020820180517bffffffffffffffffffffffffffffffffffffffffffffffffffffffff83818316178352505050506118f1565b50505050565b6000818473ffffffffffffffffffffffffffffffffffffffff1663dd62ed3e30866040518363ffffffff1660e01b8152600401611a7f929190612892565b602060405180830381865afa158015611a9c573d6000803e3d6000fd5b505050506040513d601f19601f82011682018060405250810190611ac091906123a9565b611aca9190612ab0565b9050611b4d8463095ea7b360e01b8584604051602401611aeb929190612869565b604051602081830303815290604052907bffffffffffffffffffffffffffffffffffffffffffffffffffffffff19166020820180517bffffffffffffffffffffffffffffffffffffffffffffffffffffffff83818316178352505050506118f1565b50505050565b606081601f83611b639190612ab0565b1015611b9b576040517f47aaf07a00000000000000000000000000000000000000000000000000000000815260040160405180910390fd5b8183611ba79190612ab0565b84511015611be1576040517f3b99b53d00000000000000000000000000000000000000000000000000000000815260040160405180910390fd5b6060821560008114611c025760405191506000825260208201604052611c53565b6040519150601f8416801560200281840101858101878315602002848b0101015b81831015611c405780518352602083019250602081019050611c23565b50868552601f19601f8301166040525050505b50809150509392505050565b6060611c6e8484600085611c77565b90509392505050565b606082471015611cbc576040517f08c379a0000000000000000000000000000000000000000000000000000000008152600401611cb390612b56565b60405180910390fd5b611cc585611d8b565b611d04576040517f08c379a0000000000000000000000000000000000000000000000000000000008152600401611cfb90612bc2565b60405180910390fd5b6000808673ffffffffffffffffffffffffffffffffffffffff168587604051611d2d9190612c1e565b60006040518083038185875af1925050503d8060008114611d6a576040519150601f19603f3d011682016040523d82523d6000602084013e611d6f565b606091505b5091509150611d7f828286611dae565b92505050949350505050565b6000808273ffffffffffffffffffffffffffffffffffffffff163b119050919050565b60608315611dbe57829050611e0e565b600083511115611dd15782518084602001fd5b816040517f08c379a0000000000000000000000000000000000000000000000000000000008152600401611e05919061232e565b60405180910390fd5b9392505050565b6000604051905090565b600080fd5b600080fd5b6000819050919050565b611e3c81611e29565b8114611e4757600080fd5b50565b600081359050611e5981611e33565b92915050565b600080fd5b600080fd5b600080fd5b60008083601f840112611e8457611e83611e5f565b5b8235905067ffffffffffffffff811115611ea157611ea0611e64565b5b602083019150836001820283011115611ebd57611ebc611e69565b5b9250929050565b600073ffffffffffffffffffffffffffffffffffffffff82169050919050565b6000611eef82611ec4565b9050919050565b611eff81611ee4565b8114611f0a57600080fd5b50565b600081359050611f1c81611ef6565b92915050565b6000819050919050565b611f3581611f22565b8114611f4057600080fd5b50565b600081359050611f5281611f2c565b92915050565b60008083601f840112611f6e57611f6d611e5f565b5b8235905067ffffffffffffffff811115611f8b57611f8a611e64565b5b602083019150836020820283011115611fa757611fa6611e69565b5b9250929050565b600080600080600080600080600060c08a8c031215611fd057611fcf611e1f565b5b6000611fde8c828d01611e4a565b99505060208a013567ffffffffffffffff811115611fff57611ffe611e24565b5b61200b8c828d01611e6e565b985098505060408a013567ffffffffffffffff81111561202e5761202d611e24565b5b61203a8c828d01611e6e565b9650965050606061204d8c828d01611f0d565b945050608061205e8c828d01611f43565b93505060a08a013567ffffffffffffffff81111561207f5761207e611e24565b5b61208b8c828d01611f58565b92509250509295985092959850929598565b7f4e487b7100000000000000000000000000000000000000000000000000000000600052601160045260246000fd5b60006120d782611f22565b91506120e283611f22565b92508282039050818111156120fa576120f961209d565b5b92915050565b7f4e487b7100000000000000000000000000000000000000000000000000000000600052603260045260246000fd5b600080fd5b600080fd5b600080fd5b60008235600160e00383360303811261215a5761215961212f565b5b80830191505092915050565b600061217182611ec4565b9050919050565b61218181612166565b811461218c57600080fd5b50565b60008135905061219e81612178565b92915050565b6000602082840312156121ba576121b9611e1f565b5b60006121c88482850161218f565b91505092915050565b600082825260208201905092915050565b82818337600083830152505050565b6000601f19601f8301169050919050565b600061220e83856121d1565b935061221b8385846121e2565b612224836121f1565b840190509392505050565b61223881612166565b82525050565b61224781611f22565b82525050565b600060c0820190508181036000830152612268818a8c612202565b9050818103602083015261227d81888a612202565b905061228c604083018761222f565b612299606083018661222f565b6122a6608083018561223e565b6122b360a083018461223e565b9998505050505050505050565b600081519050919050565b60005b838110156122e95780820151818401526020810190506122ce565b60008484015250505050565b6000612300826122c0565b61230a81856121d1565b935061231a8185602086016122cb565b612323816121f1565b840191505092915050565b6000602082019050818103600083015261234881846122f5565b905092915050565b6000604082019050612365600083018561223e565b612372602083018461223e565b9392505050565b600060208201905061238e600083018461222f565b92915050565b6000815190506123a381611f2c565b92915050565b6000602082840312156123bf576123be611e1f565b5b60006123cd84828501612394565b91505092915050565b7f4e487b7100000000000000000000000000000000000000000000000000000000600052604160045260246000fd5b600080fd5b612413826121f1565b810181811067ffffffffffffffff82111715612432576124316123d6565b5b80604052505050565b6000612445611e15565b9050612451828261240a565b919050565b600080fd5b600080fd5b600067ffffffffffffffff82111561247b5761247a6123d6565b5b612484826121f1565b9050602081019050919050565b60006124a461249f84612460565b61243b565b9050828152602081018484840111156124c0576124bf61245b565b5b6124cb8482856121e2565b509392505050565b600082601f8301126124e8576124e7611e5f565b5b81356124f8848260208601612491565b91505092915050565b60008115159050919050565b61251681612501565b811461252157600080fd5b50565b6000813590506125338161250d565b92915050565b600060e0828403121561254f5761254e612405565b5b61255960e061243b565b905060006125698482850161218f565b600083015250602061257d8482850161218f565b60208301525060406125918482850161218f565b60408301525060606125a58482850161218f565b60608301525060806125b984828501611f43565b60808301525060a082013567ffffffffffffffff8111156125dd576125dc612456565b5b6125e9848285016124d3565b60a08301525060c06125fd84828501612524565b60c08301525092915050565b60006126153683612539565b9050919050565b600080833560016020038436030381126126395761263861212f565b5b80840192508235915067ffffffffffffffff82111561265b5761265a612134565b5b60208301925060018202360383131561267757612676612139565b5b509250929050565b600080fd5b600080fd5b6000808585111561269d5761269c61267f565b5b838611156126ae576126ad612684565b5b6001850283019150848603905094509492505050565b600082905092915050565b60007fffffffff0000000000000000000000000000000000000000000000000000000082169050919050565b600082821b905092915050565b600061271483836126c4565b8261271f81356126cf565b9250600482101561275f5761275a7fffffffff00000000000000000000000000000000000000000000000000000000836004036008026126fb565b831692505b505092915050565b600081905092915050565b50565b6000612782600083612767565b915061278d82612772565b600082019050919050565b60006127a382612775565b9150819050919050565b60006127b98385612767565b93506127c68385846121e2565b82840190509392505050565b60006127df8284866127ad565b91508190509392505050565b6127f481611e29565b82525050565b600060e08201905061280f600083018a6127eb565b61281c602083018961222f565b612829604083018861222f565b612836606083018761222f565b612843608083018661223e565b61285060a083018561223e565b61285d60c083018461223e565b98975050505050505050565b600060408201905061287e600083018561222f565b61288b602083018461223e565b9392505050565b60006040820190506128a7600083018561222f565b6128b4602083018461222f565b9392505050565b600067ffffffffffffffff8211156128d6576128d56123d6565b5b6128df826121f1565b9050602081019050919050565b60006128ff6128fa846128bb565b61243b565b90508281526020810184848401111561291b5761291a61245b565b5b6129268482856122cb565b509392505050565b600082601f83011261294357612942611e5f565b5b81516129538482602086016128ec565b91505092915050565b60006020828403121561297257612971611e1f565b5b600082015167ffffffffffffffff8111156129905761298f611e24565b5b61299c8482850161292e565b91505092915050565b6000815190506129b48161250d565b92915050565b6000602082840312156129d0576129cf611e1f565b5b60006129de848285016129a5565b91505092915050565b7f5361666545524332303a204552433230206f7065726174696f6e20646964206e60008201527f6f74207375636365656400000000000000000000000000000000000000000000602082015250565b6000612a43602a836121d1565b9150612a4e826129e7565b604082019050919050565b60006020820190508181036000830152612a7281612a36565b9050919050565b6000606082019050612a8e600083018661222f565b612a9b602083018561222f565b612aa8604083018461223e565b949350505050565b6000612abb82611f22565b9150612ac683611f22565b9250828201905080821115612ade57612add61209d565b5b92915050565b7f416464726573733a20696e73756666696369656e742062616c616e636520666f60008201527f722063616c6c0000000000000000000000000000000000000000000000000000602082015250565b6000612b406026836121d1565b9150612b4b82612ae4565b604082019050919050565b60006020820190508181036000830152612b6f81612b33565b9050919050565b7f416464726573733a2063616c6c20746f206e6f6e2d636f6e7472616374000000600082015250565b6000612bac601d836121d1565b9150612bb782612b76565b602082019050919050565b60006020820190508181036000830152612bdb81612b9f565b9050919050565b600081519050919050565b6000612bf882612be2565b612c028185612767565b9350612c128185602086016122cb565b80840191505092915050565b6000612c2a8284612bed565b91508190509291505056fea264697066735822122072d72d096a00fff4507a7ed19520a456e78a833dac9821c8aa9b60cbe826ca9e64736f6c63430008110033",
  "linkReferences": {},
  "deployedLinkReferences": {}
}