{
  "_format": "hh-sol-artifact-1",
  "contractName": "OwnershipFacet",
  "sourceName": "src/Facets/OwnershipFacet.sol",
  "abi": [
    {
      "inputs": [],
      "name": "NewOwnerMustNotBeSelf",
      "type": "error"
    },
    {
      "inputs": [],
      "name": "NoNullOwner",
      "type": "error"
    },
    {
      "inputs": [],
      "name": "NoPendingOwnershipTransfer",
      "type": "error"
    },
    {
      "inputs": [],
      "name": "NotPendingOwner",
      "type": "error"
    },
    {
      "inputs": [],
      "name": "OnlyContractOwner",
      "type": "error"
    },
    {
      "anonymous": false,
      "inputs": [
        {
          "indexed": true,
          "internalType": "address",
          "name": "_from",
          "type": "address"
        },
        {
          "indexed": true,
          "internalType": "address",
          "name": "_to",
          "type": "address"
        }
      ],
      "name": "OwnershipTransferRequested",
      "type": "event"
    },
    {
      "anonymous": false,
      "inputs": [
        {
          "indexed": true,
          "internalType": "address",
          "name": "previousOwner",
          "type": "address"
        },
        {
          "indexed": true,
          "internalType": "address",
          "name": "newOwner",
          "type": "address"
        }
      ],
      "name": "OwnershipTransferred",
      "type": "event"
    },
    {
      "inputs": [],
      "name": "cancelOwnershipTransfer",
      "outputs": [],
      "stateMutability": "nonpayable",
      "type": "function"
    },
    {
      "inputs": [],
      "name": "confirmOwnershipTransfer",
      "outputs": [],
      "stateMutability": "nonpayable",
      "type": "function"
    },
    {
      "inputs": [],
      "name": "owner",
      "outputs": [
        {
          "internalType": "address",
          "name": "owner_",
          "type": "address"
        }
      ],
      "stateMutability": "view",
      "type": "function"
    },
    {
      "inputs": [
        {
          "internalType": "address",
          "name": "_newOwner",
          "type": "address"
        }
      ],
      "name": "transferOwnership",
      "outputs": [],
      "stateMutability": "nonpayable",
      "type": "function"
    }
  ],
  "bytecode": "0x608060405234801561001057600080fd5b5061075c806100206000396000f3fe608060405234801561001057600080fd5b506004361061004c5760003560e01c806323452b9c146100515780637200b8291461005b5780638da5cb5b14610065578063f2fde38b14610083575b600080fd5b61005961009f565b005b61006361015e565b005b61006d6102aa565b60405161007a91906106ad565b60405180910390f35b61009d600480360381019061009891906106f9565b6102b9565b005b6100a761043e565b60006100b16104d0565b90506100e08160000160009054906101000a900473ffffffffffffffffffffffffffffffffffffffff166104fd565b15610117576040517f75cdea1200000000000000000000000000000000000000000000000000000000815260040160405180910390fd5b60008160000160006101000a81548173ffffffffffffffffffffffffffffffffffffffff021916908373ffffffffffffffffffffffffffffffffffffffff16021790555050565b60006101686104d0565b905060008160000160009054906101000a900473ffffffffffffffffffffffffffffffffffffffff1690508073ffffffffffffffffffffffffffffffffffffffff163373ffffffffffffffffffffffffffffffffffffffff16146101f8576040517f1853971c00000000000000000000000000000000000000000000000000000000815260040160405180910390fd5b8073ffffffffffffffffffffffffffffffffffffffff16610217610535565b73ffffffffffffffffffffffffffffffffffffffff167f8be0079c531659141344cd1fd0a4f28419497f9722a3daafe3b4186f6b6457e060405160405180910390a361026281610568565b60008260000160006101000a81548173ffffffffffffffffffffffffffffffffffffffff021916908373ffffffffffffffffffffffffffffffffffffffff1602179055505050565b60006102b4610535565b905090565b6102c161043e565b60006102cb6104d0565b90506102d6826104fd565b1561030d576040517f1beca37400000000000000000000000000000000000000000000000000000000815260040160405180910390fd5b610315610535565b73ffffffffffffffffffffffffffffffffffffffff168273ffffffffffffffffffffffffffffffffffffffff1603610379576040517fbf1ea9fb00000000000000000000000000000000000000000000000000000000815260040160405180910390fd5b818160000160006101000a81548173ffffffffffffffffffffffffffffffffffffffff021916908373ffffffffffffffffffffffffffffffffffffffff1602179055508060000160009054906101000a900473ffffffffffffffffffffffffffffffffffffffff1673ffffffffffffffffffffffffffffffffffffffff163373ffffffffffffffffffffffffffffffffffffffff167fed8889f560326eb138920d842192f0eb3dd22b4f139c87a2c57538e05bae127860405160405180910390a35050565b61044661063f565b60040160009054906101000a900473ffffffffffffffffffffffffffffffffffffffff1673ffffffffffffffffffffffffffffffffffffffff163373ffffffffffffffffffffffffffffffffffffffff16146104ce576040517f277d76f800000000000000000000000000000000000000000000000000000000815260040160405180910390fd5b565b6000807f4a79a9c392d2a3b2677466fc981b2ba255e15dbb2d3dd49bba3c315b7a0e567890508091505090565b60008073ffffffffffffffffffffffffffffffffffffffff168273ffffffffffffffffffffffffffffffffffffffff16149050919050565b600061053f61063f565b60040160009054906101000a900473ffffffffffffffffffffffffffffffffffffffff16905090565b600061057261063f565b905060008160040160009054906101000a900473ffffffffffffffffffffffffffffffffffffffff169050828260040160006101000a81548173ffffffffffffffffffffffffffffffffffffffff021916908373ffffffffffffffffffffffffffffffffffffffff1602179055508273ffffffffffffffffffffffffffffffffffffffff168173ffffffffffffffffffffffffffffffffffffffff167f8be0079c531659141344cd1fd0a4f28419497f9722a3daafe3b4186f6b6457e060405160405180910390a3505050565b6000807fc8fcad8db84d3cc18b4c41d551ea0ee66dd599cde068d998e57d5e09332c131c90508091505090565b600073ffffffffffffffffffffffffffffffffffffffff82169050919050565b60006106978261066c565b9050919050565b6106a78161068c565b82525050565b60006020820190506106c2600083018461069e565b92915050565b600080fd5b6106d68161068c565b81146106e157600080fd5b50565b6000813590506106f3816106cd565b92915050565b60006020828403121561070f5761070e6106c8565b5b600061071d848285016106e4565b9150509291505056fea26469706673582212202ed2d46b62eef752e03921ce09a3642dbd81fd943a761a428749dd83cd1d8f3664736f6c63430008110033",
  "linkReferences": {},
  "deployedLinkReferences": {}
}