{
  "_format": "hh-sol-artifact-1",
  "contractName": "DexManagerFacet",
  "sourceName": "src/Facets/DexManagerFacet.sol",
  "abi": [
    {
      "inputs": [],
      "name": "CannotAuthoriseSelf",
      "type": "error"
    },
    {
      "inputs": [],
      "name": "InvalidContract",
      "type": "error"
    },
    {
      "inputs": [],
      "name": "UnAuthorized",
      "type": "error"
    },
    {
      "anonymous": false,
      "inputs": [
        {
          "indexed": true,
          "internalType": "address",
          "name": "dexAddress",
          "type": "address"
        }
      ],
      "name": "DexAdded",
      "type": "event"
    },
    {
      "anonymous": false,
      "inputs": [
        {
          "indexed": true,
          "internalType": "address",
          "name": "dexAddress",
          "type": "address"
        }
      ],
      "name": "DexRemoved",
      "type": "event"
    },
    {
      "anonymous": false,
      "inputs": [
        {
          "indexed": true,
          "internalType": "bytes4",
          "name": "functionSignature",
          "type": "bytes4"
        },
        {
          "indexed": true,
          "internalType": "bool",
          "name": "approved",
          "type": "bool"
        }
      ],
      "name": "FunctionSignatureApprovalChanged",
      "type": "event"
    },
    {
      "inputs": [
        {
          "internalType": "address",
          "name": "_dex",
          "type": "address"
        }
      ],
      "name": "addDex",
      "outputs": [],
      "stateMutability": "nonpayable",
      "type": "function"
    },
    {
      "inputs": [],
      "name": "approvedDexs",
      "outputs": [
        {
          "internalType": "address[]",
          "name": "addresses",
          "type": "address[]"
        }
      ],
      "stateMutability": "view",
      "type": "function"
    },
    {
      "inputs": [
        {
          "internalType": "address[]",
          "name": "_dexs",
          "type": "address[]"
        }
      ],
      "name": "batchAddDex",
      "outputs": [],
      "stateMutability": "nonpayable",
      "type": "function"
    },
    {
      "inputs": [
        {
          "internalType": "address[]",
          "name": "_dexs",
          "type": "address[]"
        }
      ],
      "name": "batchRemoveDex",
      "outputs": [],
      "stateMutability": "nonpayable",
      "type": "function"
    },
    {
      "inputs": [
        {
          "internalType": "bytes4[]",
          "name": "_signatures",
          "type": "bytes4[]"
        },
        {
          "internalType": "bool",
          "name": "_approval",
          "type": "bool"
        }
      ],
      "name": "batchSetFunctionApprovalBySignature",
      "outputs": [],
      "stateMutability": "nonpayable",
      "type": "function"
    },
    {
      "inputs": [
        {
          "internalType": "bytes4",
          "name": "_signature",
          "type": "bytes4"
        }
      ],
      "name": "isFunctionApproved",
      "outputs": [
        {
          "internalType": "bool",
          "name": "approved",
          "type": "bool"
        }
      ],
      "stateMutability": "view",
      "type": "function"
    },
    {
      "inputs": [
        {
          "internalType": "address",
          "name": "_dex",
          "type": "address"
        }
      ],
      "name": "removeDex",
      "outputs": [],
      "stateMutability": "nonpayable",
      "type": "function"
    },
    {
      "inputs": [
        {
          "internalType": "bytes4",
          "name": "_signature",
          "type": "bytes4"
        },
        {
          "internalType": "bool",
          "name": "_approval",
          "type": "bool"
        }
      ],
      "name": "setFunctionApprovalBySignature",
      "outputs": [],
      "stateMutability": "nonpayable",
      "type": "function"
    }
  ],
  "bytecode": "0x608060405234801561001057600080fd5b506116a0806100206000396000f3fe608060405234801561001057600080fd5b50600436106100885760003560e01c80639afc19c71161005b5780639afc19c714610111578063c3a6a96b1461012d578063fbb2d38114610149578063fcd8e49e1461016757610088565b8063124f1ead1461008d5780632d2506a9146100a957806344e2b18c146100d9578063536db266146100f5575b600080fd5b6100a760048036038101906100a29190611109565b610183565b005b6100c360048036038101906100be919061118e565b610215565b6040516100d091906111d6565b60405180910390f35b6100f360048036038101906100ee9190611282565b610227565b005b61010f600480360381019061010a9190611109565b610367565b005b61012b60048036038101906101269190611338565b61045e565b005b61014760048036038101906101429190611385565b61055f565b005b610151610613565b60405161015e9190611483565b60405180910390f35b610181600480360381019061017c9190611338565b610622565b005b61018b61077c565b73ffffffffffffffffffffffffffffffffffffffff163373ffffffffffffffffffffffffffffffffffffffff16146101c6576101c56107af565b5b6101cf816108bc565b8073ffffffffffffffffffffffffffffffffffffffff167f78e0a2ffcdfbbb49ba5c8050d8630fab2176d825e8360809db049cd98f462a7860405160405180910390a250565b600061022082610b18565b9050919050565b6102656040518060400160405280600781526020017f63616c6c696e6700000000000000000000000000000000000000000000000000815250610b89565b61026d61077c565b73ffffffffffffffffffffffffffffffffffffffff163373ffffffffffffffffffffffffffffffffffffffff16146102a8576102a76107af565b5b600083839050905060005b818110156103605760008585838181106102d0576102cf6114a5565b5b90506020020160208101906102e5919061118e565b905083156102fb576102f681610c22565b610305565b61030481610c98565b5b831515817bffffffffffffffffffffffffffffffffffffffffffffffffffffffff19167f9167f6a23d52a4522e9211205d62ce63f02d928227ae0fe00326f51e152a3c4560405160405180910390a3816001019150506102b3565b5050505050565b61036f61077c565b73ffffffffffffffffffffffffffffffffffffffff163373ffffffffffffffffffffffffffffffffffffffff16146103aa576103a96107af565b5b3073ffffffffffffffffffffffffffffffffffffffff168173ffffffffffffffffffffffffffffffffffffffff160361040f576040517fa9cefcae00000000000000000000000000000000000000000000000000000000815260040160405180910390fd5b61041881610d0e565b8073ffffffffffffffffffffffffffffffffffffffff167f7e0058dd0cbc0a8b7beaa013a4825655d8e9e81a5e2cc6582818deded0a41b9960405160405180910390a250565b61046661077c565b73ffffffffffffffffffffffffffffffffffffffff163373ffffffffffffffffffffffffffffffffffffffff16146104a1576104a06107af565b5b600082829050905060005b81811015610559576104e48484838181106104ca576104c96114a5565b5b90506020020160208101906104df9190611109565b6108bc565b8383828181106104f7576104f66114a5565b5b905060200201602081019061050c9190611109565b73ffffffffffffffffffffffffffffffffffffffff167f78e0a2ffcdfbbb49ba5c8050d8630fab2176d825e8360809db049cd98f462a7860405160405180910390a28060010190506104ac565b50505050565b61056761077c565b73ffffffffffffffffffffffffffffffffffffffff163373ffffffffffffffffffffffffffffffffffffffff16146105a2576105a16107af565b5b80156105b6576105b182610c22565b6105c0565b6105bf82610c98565b5b801515827bffffffffffffffffffffffffffffffffffffffffffffffffffffffff19167f9167f6a23d52a4522e9211205d62ce63f02d928227ae0fe00326f51e152a3c4560405160405180910390a35050565b606061061d610e41565b905090565b61062a61077c565b73ffffffffffffffffffffffffffffffffffffffff163373ffffffffffffffffffffffffffffffffffffffff1614610665576106646107af565b5b600082829050905060005b8181101561077657600084848381811061068d5761068c6114a5565b5b90506020020160208101906106a29190611109565b90503073ffffffffffffffffffffffffffffffffffffffff168173ffffffffffffffffffffffffffffffffffffffff1603610709576040517fa9cefcae00000000000000000000000000000000000000000000000000000000815260040160405180910390fd5b61071281610ed8565b1561071d5750610771565b61072681610d0e565b8073ffffffffffffffffffffffffffffffffffffffff167f7e0058dd0cbc0a8b7beaa013a4825655d8e9e81a5e2cc6582818deded0a41b9960405160405180910390a2816001019150505b610670565b50505050565b6000610786610f37565b60040160009054906101000a900473ffffffffffffffffffffffffffffffffffffffff16905090565b60006107b9610f64565b90506001151581600001600080357fffffffff00000000000000000000000000000000000000000000000000000000167bffffffffffffffffffffffffffffffffffffffffffffffffffffffff19167bffffffffffffffffffffffffffffffffffffffffffffffffffffffff1916815260200190815260200160002060003373ffffffffffffffffffffffffffffffffffffffff1673ffffffffffffffffffffffffffffffffffffffff16815260200190815260200160002060009054906101000a900460ff161515146108b9576040517fbe24598300000000000000000000000000000000000000000000000000000000815260040160405180910390fd5b50565b60006108c6610f91565b90508060000160008373ffffffffffffffffffffffffffffffffffffffff1673ffffffffffffffffffffffffffffffffffffffff16815260200190815260200160002060009054906101000a900460ff166109215750610b15565b60008160000160008473ffffffffffffffffffffffffffffffffffffffff1673ffffffffffffffffffffffffffffffffffffffff16815260200190815260200160002060006101000a81548160ff02191690831515021790555060008160020180549050905060005b81811015610b11578373ffffffffffffffffffffffffffffffffffffffff168360020182815481106109bf576109be6114a5565b5b9060005260206000200160009054906101000a900473ffffffffffffffffffffffffffffffffffffffff1673ffffffffffffffffffffffffffffffffffffffff1603610afe5782600201600183610a16919061150d565b81548110610a2757610a266114a5565b5b9060005260206000200160009054906101000a900473ffffffffffffffffffffffffffffffffffffffff16836002018281548110610a6857610a676114a5565b5b9060005260206000200160006101000a81548173ffffffffffffffffffffffffffffffffffffffff021916908373ffffffffffffffffffffffffffffffffffffffff16021790555082600201805480610ac457610ac3611541565b5b6001900381819060005260206000200160006101000a81549073ffffffffffffffffffffffffffffffffffffffff02191690559055610b11565b8080610b0990611570565b91505061098a565b5050505b50565b6000610b22610f91565b6001016000837bffffffffffffffffffffffffffffffffffffffffffffffffffffffff19167bffffffffffffffffffffffffffffffffffffffffffffffffffffffff1916815260200190815260200160002060009054906101000a900460ff169050919050565b610c1f81604051602401610b9d9190611648565b6040516020818303038152906040527f41304fac000000000000000000000000000000000000000000000000000000007bffffffffffffffffffffffffffffffffffffffffffffffffffffffff19166020820180517bffffffffffffffffffffffffffffffffffffffffffffffffffffffff8381831617835250505050610fbe565b50565b6001610c2c610f91565b6001016000837bffffffffffffffffffffffffffffffffffffffffffffffffffffffff19167bffffffffffffffffffffffffffffffffffffffffffffffffffffffff1916815260200190815260200160002060006101000a81548160ff02191690831515021790555050565b6000610ca2610f91565b6001016000837bffffffffffffffffffffffffffffffffffffffffffffffffffffffff19167bffffffffffffffffffffffffffffffffffffffffffffffffffffffff1916815260200190815260200160002060006101000a81548160ff02191690831515021790555050565b610d1781610fe7565b6000610d21610f91565b90508060000160008373ffffffffffffffffffffffffffffffffffffffff1673ffffffffffffffffffffffffffffffffffffffff16815260200190815260200160002060009054906101000a900460ff1615610d7d5750610e3e565b60018160000160008473ffffffffffffffffffffffffffffffffffffffff1673ffffffffffffffffffffffffffffffffffffffff16815260200190815260200160002060006101000a81548160ff02191690831515021790555080600201829080600181540180825580915050600190039060005260206000200160009091909190916101000a81548173ffffffffffffffffffffffffffffffffffffffff021916908373ffffffffffffffffffffffffffffffffffffffff160217905550505b50565b6060610e4b610f91565b600201805480602002602001604051908101604052809291908181526020018280548015610ece57602002820191906000526020600020905b8160009054906101000a900473ffffffffffffffffffffffffffffffffffffffff1673ffffffffffffffffffffffffffffffffffffffff1681526020019060010190808311610e84575b5050505050905090565b6000610ee2610f91565b60000160008373ffffffffffffffffffffffffffffffffffffffff1673ffffffffffffffffffffffffffffffffffffffff16815260200190815260200160002060009054906101000a900460ff169050919050565b6000807fc8fcad8db84d3cc18b4c41d551ea0ee66dd599cde068d998e57d5e09332c131c90508091505090565b6000807f2f67df2c8ea98878b27d45fa54c0be4d9d8154fefc089eb664599d68f8dc88a990508091505090565b6000807fbcebf0a9ab66af8ebd1c7c5806111adc185225ddfcbffe27e46ed5ac66b8904890508091505090565b60008151905060006a636f6e736f6c652e6c6f679050602083016000808483855afa5050505050565b600073ffffffffffffffffffffffffffffffffffffffff168173ffffffffffffffffffffffffffffffffffffffff160361104d576040517f6eefed2000000000000000000000000000000000000000000000000000000000815260040160405180910390fd5b60008173ffffffffffffffffffffffffffffffffffffffff163b0361109e576040517f6eefed2000000000000000000000000000000000000000000000000000000000815260040160405180910390fd5b50565b600080fd5b600080fd5b600073ffffffffffffffffffffffffffffffffffffffff82169050919050565b60006110d6826110ab565b9050919050565b6110e6816110cb565b81146110f157600080fd5b50565b600081359050611103816110dd565b92915050565b60006020828403121561111f5761111e6110a1565b5b600061112d848285016110f4565b91505092915050565b60007fffffffff0000000000000000000000000000000000000000000000000000000082169050919050565b61116b81611136565b811461117657600080fd5b50565b60008135905061118881611162565b92915050565b6000602082840312156111a4576111a36110a1565b5b60006111b284828501611179565b91505092915050565b60008115159050919050565b6111d0816111bb565b82525050565b60006020820190506111eb60008301846111c7565b92915050565b600080fd5b600080fd5b600080fd5b60008083601f840112611216576112156111f1565b5b8235905067ffffffffffffffff811115611233576112326111f6565b5b60208301915083602082028301111561124f5761124e6111fb565b5b9250929050565b61125f816111bb565b811461126a57600080fd5b50565b60008135905061127c81611256565b92915050565b60008060006040848603121561129b5761129a6110a1565b5b600084013567ffffffffffffffff8111156112b9576112b86110a6565b5b6112c586828701611200565b935093505060206112d88682870161126d565b9150509250925092565b60008083601f8401126112f8576112f76111f1565b5b8235905067ffffffffffffffff811115611315576113146111f6565b5b602083019150836020820283011115611331576113306111fb565b5b9250929050565b6000806020838503121561134f5761134e6110a1565b5b600083013567ffffffffffffffff81111561136d5761136c6110a6565b5b611379858286016112e2565b92509250509250929050565b6000806040838503121561139c5761139b6110a1565b5b60006113aa85828601611179565b92505060206113bb8582860161126d565b9150509250929050565b600081519050919050565b600082825260208201905092915050565b6000819050602082019050919050565b6113fa816110cb565b82525050565b600061140c83836113f1565b60208301905092915050565b6000602082019050919050565b6000611430826113c5565b61143a81856113d0565b9350611445836113e1565b8060005b8381101561147657815161145d8882611400565b975061146883611418565b925050600181019050611449565b5085935050505092915050565b6000602082019050818103600083015261149d8184611425565b905092915050565b7f4e487b7100000000000000000000000000000000000000000000000000000000600052603260045260246000fd5b6000819050919050565b7f4e487b7100000000000000000000000000000000000000000000000000000000600052601160045260246000fd5b6000611518826114d4565b9150611523836114d4565b925082820390508181111561153b5761153a6114de565b5b92915050565b7f4e487b7100000000000000000000000000000000000000000000000000000000600052603160045260246000fd5b600061157b826114d4565b91507fffffffffffffffffffffffffffffffffffffffffffffffffffffffffffffffff82036115ad576115ac6114de565b5b600182019050919050565b600081519050919050565b600082825260208201905092915050565b60005b838110156115f25780820151818401526020810190506115d7565b60008484015250505050565b6000601f19601f8301169050919050565b600061161a826115b8565b61162481856115c3565b93506116348185602086016115d4565b61163d816115fe565b840191505092915050565b60006020820190508181036000830152611662818461160f565b90509291505056fea26469706673582212200fcab835daf10162aee402a4be9929b074bb29b4cbc3b0a7ac658045d299f09164736f6c63430008110033",
  "linkReferences": {},
  "deployedLinkReferences": {}
}